:100000000C942A000C9447000C9447000C94470071
:100010000C9447000C9447000C9427020C94470062
:100020000C9447000C9447000C9447000C94470034
:100030000C9447000C9447000C9447000C94470024
:100040000C9447000C9447000C9447000C94470014
:100050000C94470011241FBECFE5D8E0DEBFCDBF12
:1000600011E0A0E6B0E0E0E1F5E102C005900D92FC
:10007000A03CB107D9F722E0A0ECB1E001C01D928D
:10008000AB34B207E1F70E94AC030C94860A0C94DF
:100090000000CF93DF93D82FC62F40E060E081E0CF
:1000A0000E94020540E061E081E00E9402056D2FA0
:1000B00080E00E94850541E0C13009F040E063E046
:1000C00081E00E94020541E0C23009F040E064E0B6
:1000D00081E00E94020541E062E081E00E940205A9
:1000E00000C000C0000040E062E081E00E94020524
:1000F00040E063E081E00E94020540E064E081E0CE
:100100000E94020500C000C00000DF91CF91089559
:10011000CF93DF93D82FC62F41E060E081E00E94AB
:10012000020540E061E081E00E9402056D2F80E061
:100130000E94850541E0C13009F040E063E081E0C4
:100140000E94020541E0C23009F040E064E081E035
:100150000E94020541E062E081E00E94020500C0C9
:1001600000C0000040E062E081E00E94020540E043
:1001700063E081E00E94020540E064E081E00E94CB
:10018000020500C000C00000DF91CF910895CF9319
:10019000DF93C62F8093C1016093C001603410F4D7
:1001A000D1E001C0D2E0C03408F0C0546D2F886B9C
:1001B0000E9449006D2F8C2F80640E944900DF91BE
:1001C000CF9108950F931F93CF93DF9300EE080F05
:1001D0000B3308F075C0D0E038C0C091C001C03406
:1001E00010F411E001C012E0C03408F0C054809156
:1001F000C101612F886B0E944900612F8C2F8064A0
:100200000E944900802F90E0FC01EE0FFF1FEE0FCF
:10021000FF1FE80FF91FE05AFF4FED0FF11D612F8F
:1002200080810E9488008091C0018F5F8093C0010F
:10023000803451F48091C10162E0886B0E944900D2
:1002400062E080E40E944900DF5FD53030F2C09167
:10025000C001C03410F4D1E001C0D2E0C03408F0D5
:10026000C0548091C1016D2F886B0E9449006D2F91
:100270008C2F80640E9449006D2F80E00E948800CE
:100280008091C0018F5F8093C001803451F48091D0
:10029000C10162E0886B0E94490062E080E40E9434
:1002A00049008091C00188235CF41092C0018091C4
:1002B000C1018F5F8093C101883010F01092C1019D
:1002C000DF91CF911F910F910895CF93DF93EC01B0
:1002D00003C00E94E200219688818111FACFDF914C
:1002E000CF9108951F93CF93DF9310E018C06D2F27
:1002F000812F886B0E9449006D2F80E40E94490085
:10030000C0E005C06D2F80E00E948800CF5FC03440
:10031000C8F3DF5F01C0D1E0D33048F31F5F18306E
:10032000D0F31092C1011092C001DF91CF911F91C3
:1003300008956FEF80E00E94750541E060E081E084
:100340000E948F0441E061E081E00E948F0441E05F
:1003500062E081E00E948F0441E063E081E00E945E
:100360008F0441E064E081E00E948F0441E065E099
:1003700081E00E948F0440E065E081E00E94020578
:1003800083EC99E00197F1F700C0000041E065E0DF
:1003900081E00E94020583ED90E30197F1F700C030
:1003A000000061E08FE30E94490062E08FE30E9459
:1003B000490087EA91E60197F1F700C000000E942A
:1003C00072010895CF93C82F41E060E081E00E9460
:1003D000020541E061E081E00E94020560E080E00A
:1003E0000E94750541E0C13009F040E063E081E022
:1003F0000E94020541E0C23009F040E064E081E083
:100400000E94020541E062E081E00E94020500C016
:1004100000C0000080E00E949505C82F40E062E027
:1004200081E00E9402056FEF80E00E94750540E0C8
:1004300063E081E00E94020540E064E081E00E9408
:10044000020500C000C000008C2FCF9108951F92BC
:100450000F920FB60F9211242F933F934F935F93F8
:100460008F939F930EB406FE18C086B597B5209162
:10047000490230914A02AC01421B530B5093460291
:100480004093450290934A02809349028EB58F7B38
:100490008EBD81E08093430218C08091430288237F
:1004A000A1F086B597B52091490230914A02821B8E
:1004B000930B9093480280934702109243028EB5AB
:1004C00080648EBD81E0809344029F918F915F9103
:1004D0004F913F912F910F900FBE0F901F90189545
:1004E0001FBC82E48EBD89B7806289BF789408956D
:1004F000BF92CF92DF92EF92FF920F931F93CF9311
:10050000DF9320E030E048EC52E40E94A70520E0B1
:1005100030E048E452E40E94D6060E941906809119
:10052000420291E0861708F090E0492F90E0019692
:1005300062E370E00E9443078093420220E00BC018
:10054000822F90E0FC01ED53FE4F3081FC01EE5311
:10055000FE4F30832F5F2F3798F340934102D5E051
:100560001BC060E08D2F0E94C700C0E005C061E0A5
:1005700080E00E948800CF5FC034C8F360E48D2F14
:100580000E94C700C0E005C062E080E00E948800D1
:10059000CF5FC034C8F3DF5FD83018F3B12CA6C0EA
:1005A0008B2D90E0FC01EE53FE4F2081222329F099
:1005B0000F2EF8E2FF2EF02D04C00F2EFFE3FF2ECA
:1005C000F02DBB2059F0FC01EF53FE4F80818823B2
:1005D00039F00F2EF8E2DF2EF02D06C0DF2C04C01C
:1005E0000F2EFFE3DF2EF02D00E010E02DC09F2D39
:1005F000900F903460F5892F869586958695C92F42
:10060000C7709FE39B1510F0D1E001C0D2E09FE3DB
:100610009B1530F40F2EF0ECEF2EF02DEB0C01C0FB
:10062000EB2C6D2F886B0E9449006D2F8E2D8064FE
:100630000E9449006D2F81E001C0880FCA95EAF73A
:100640000E9488000F5F1F4F0230110584F2BB200B
:1006500009F44BC0FD1042C048C0CB2CCE1818E2A4
:1006600037C0812F869586958695D12FD7709FE3C9
:100670009C1510F0C1E001C0C2E09FE39C1518F486
:1006800000EC0C0D01C00C2D886BD82E6C2F0E9435
:10069000490000646C2F802F0E9449008C2F90E04D
:1006A0000E94E20121E030E002C0220F331FDA9500
:1006B000E2F7D82FD22B6C2F8D2D0E9449006C2F82
:1006C000802F0E9449006C2F8D2F0E9488001F5F91
:1006D000103438F28FEFE81AF80A02C0E12CF12C3E
:1006E00092E0E916F1040CF4B8CFB394BB200CF0FF
:1006F00057CF8FE39CE90197F1F700C00000DF912D
:10070000CF911F910F91FF90EF90DF90CF90BF900E
:1007100008951F93CF93DF9310E018C06D2F812FA2
:10072000886B0E9449006D2F80E40E944900C0E060
:1007300005C06D2F80E00E948800CF5FC034C8F3F1
:10074000DF5F01C0D1E0D33048F31F5F1430D0F336
:10075000DF91CF911F910895CF93DF93CDB7DEB78F
:10076000A1970FB6F894DEBF0FBECDBF0E949901CE
:100770000E94700260E080E00E94C70087E891E07C
:100780000E9465012FEF83ED90E32150804090405F
:10079000E1F700C000000E947201B12C8091440278
:1007A0008823E1F310924402809145029091460221
:1007B000892B79F0209145023091460240E050E0CB
:1007C00060E874E88EE190E00E94570769017A01C1
:1007D00003C0C12CD12C7601809145029091460234
:1007E000892BC1F02091470230914802A4E6B0E085
:1007F0000E947907209145023091460240E050E086
:100800000E945707B22E24E62B1520F40F2EF4E693
:10081000BF2EF02D609145027091460280E090E07D
:100820000E94480620E030E040E05FE30E94D606E8
:100830000E9419060F2EF8EE2F2EF3E03F2E412CCA
:10084000512CF02DA20191010E94570729A3A32E3C
:10085000942E852E762E672E0E948903C701B6013D
:10086000A20191010E945707122F032F542E452EEB
:10087000362E272E60E080E00E94C7002F923F9224
:100880004F925F920F931F9384E991E09F938F9310
:100890008E010F5F1F4F1F930F930E949C07C8018B
:1008A0000E94650160E581E00E94C7001F92BF922F
:1008B00085EA91E09F938F931F930F930E949C076B
:1008C000C8010E94650160E082E00E94C7006F924B
:1008D0007F928F929F92AF9289A18F938FEA91E03E
:1008E0009F938F931F930F930E949C07C8010E94B0
:1008F0006501C701B6010E9448066B017C016B2DA2
:1009000070E080E090E00E944806A70196010E94F6
:1009100078020FB6F894DEBF0FBECDBF3FCF683070
:1009200008F06FC04130A1F5813089F028F08230A5
:10093000C9F0833011F108952AB381E090E002C03C
:10094000880F991F6A95E2F7822B8ABB089527B317
:1009500081E090E002C0880F991F6A95E2F7822B30
:1009600087BB089524B381E090E002C0880F991FEF
:100970006A95E2F7822B84BB089521B381E090E071
:1009800002C0880F991F6A95E2F7822B81BB0895F8
:10099000411137C0813091F028F08230D9F0833096
:1009A00029F108952AB381E090E002C0880F991FD1
:1009B0006A95E2F7809582238ABB089527B381E088
:1009C00090E002C0880F991F6A95E2F78095822314
:1009D00087BB089524B381E090E002C0880F991F7F
:1009E0006A95E2F78095822384BB089521B381E064
:1009F00090E002C0880F991F6A95E2F780958223E4
:100A000081BB0895683008F06FC04130A1F5813096
:100A100089F028F08230C9F0833011F108952BB3AA
:100A200081E090E002C0880F991F6A95E2F7822B5F
:100A30008BBB089528B381E090E002C0880F991F16
:100A40006A95E2F7822B88BB089525B381E090E098
:100A500002C0880F991F6A95E2F7822B85BB089523
:100A600022B381E090E002C0880F991F6A95E2F7F7
:100A7000822B82BB0895411137C0813091F028F05C
:100A80008230D9F0833029F108952BB381E090E0D2
:100A900002C0880F991F6A95E2F7809582238BBB6D
:100AA000089528B381E090E002C0880F991F6A95ED
:100AB000E2F78095822388BB089525B381E090E01A
:100AC00002C0880F991F6A95E2F78095822385BB43
:100AD000089522B381E090E002C0880F991F6A95C3
:100AE000E2F78095822382BB0895813041F028F09F
:100AF000823039F0833039F008956ABB089567BBBE
:100B0000089564BB089561BB0895813041F028F0D9
:100B1000823039F0833039F008956BBB089568BB9B
:100B2000089565BB089562BB0895813041F028F0B7
:100B3000823039F0833039F008C089B3089586B324
:100B4000089583B3089580B3089580E008950E94C6
:100B5000BB050C949C060E94950658F00E948E06D8
:100B600040F029F45F3F29F00C94850651110C9454
:100B7000D0060C948B060E94AD0668F39923B1F35E
:100B8000552391F3951B550BBB27AA2762177307B3
:100B9000840738F09F5F5F4F220F331F441FAA1F47
:100BA000A9F335D00E2E3AF0E0E832D09150504003
:100BB000E695001CCAF72BD0FE2F29D0660F771FB1
:100BC000881FBB1F261737074807AB07B0E809F097
:100BD000BB0B802DBF01FF2793585F4F3AF09E3F1C
:100BE000510578F00C9485060C94D0065F3FE4F331
:100BF000983ED4F3869577956795B795F7959F5F5F
:100C0000C9F7880F911D9695879597F90895E1E0AA
:100C1000660F771F881FBB1F621773078407BA0709
:100C200020F0621B730B840BBA0BEE1F88F7E09564
:100C300008950E94B50688F09F5798F0B92F99271C
:100C4000B751B0F0E1F0660F771F881F991F1AF0B7
:100C5000BA95C9F714C0B13091F00E94CF06B1E047
:100C600008950C94CF06672F782F8827B85F39F046
:100C7000B93FCCF3869577956795B395D9F73EF450
:100C800090958095709561957F4F8F4F9F4F0895F8
:100C9000E89409C097FB3EF4909580957095619516
:100CA0007F4F8F4F9F4F9923A9F0F92F96E9BB27CC
:100CB0009395F695879577956795B795F111F8CF48
:100CC000FAF4BB0F11F460FF1BC06F5F7F4F8F4FB3
:100CD0009F4F16C0882311F096E911C0772321F0A9
:100CE0009EE8872F762F05C0662371F096E8862F41
:100CF00070E060E02AF09A95660F771F881FDAF798
:100D0000880F9695879597F9089597F99F6780E8DA
:100D100070E060E008959FEF80EC089500240A944D
:100D20001616170618060906089500240A941216C6
:100D30001306140605060895092E0394000C11F4F9
:100D4000882352F0BB0F40F4BF2B11F460FF04C0A6
:100D50006F5F7F4F8F4F9F4F089557FD9058440FFF
:100D6000551F59F05F3F71F04795880F97FB991F0A
:100D700061F09F3F79F087950895121613061406C7
:100D8000551FF2CF4695F1DF08C016161706180654
:100D9000991FF1CF86957105610508940895E8942F
:100DA000BB2766277727CB0197F908950E94E906AC
:100DB0000C949C060E948E0638F00E94950620F046
:100DC000952311F00C9485060C948B0611240C9439
:100DD000D0060E94AD0670F3959FC1F3950F50E0C9
:100DE000551F629FF001729FBB27F00DB11D639FDD
:100DF000AA27F00DB11DAA1F649F6627B00DA11D83
:100E0000661F829F2227B00DA11D621F739FB00D28
:100E1000A11D621F839FA00D611D221F749F332798
:100E2000A00D611D231F849F600D211D822F762F31
:100E30006A2F11249F5750409AF0F1F088234AF00E
:100E4000EE0FFF1FBB1F661F771F881F915050407A
:100E5000A9F79E3F510580F00C9485060C94D006AE
:100E60005F3FE4F3983ED4F3869577956795B79501
:100E7000F795E7959F5FC1F7FE2B880F911D96951B
:100E8000879597F9089597FB072E16F4009407D0DD
:100E900077FD09D00E94880707FC05D03EF49095A5
:100EA00081959F4F0895709561957F4F0895A1E2B8
:100EB0001A2EAA1BBB1BFD010DC0AA1FBB1FEE1FD4
:100EC000FF1FA217B307E407F50720F0A21BB30B1F
:100ED000E40BF50B661F771F881F991F1A9469F79B
:100EE00060957095809590959B01AC01BD01CF01F7
:100EF0000895A29FB001B39FC001A39F700D811DF3
:100F00001124911DB29F700D811D1124911D089512
:100F1000AA1BBB1B51E107C0AA1FBB1FA617B7071F
:100F200010F0A61BB70B881F991F5A95A9F780953B
:100F30009095BC01CD010895AEE0B0E0E2EAF7E0A3
:100F40000C945D0A0D891E8986E08C831A830983BF
:100F50008FEF9FE79E838D83AE01475E5F4F6F8962
:100F6000788DCE0101960E94BE07EF81F885E00FD3
:100F7000F11F10822E96E4E00C94790AABE0B0E009
:100F8000E4ECF7E00C944F0A6C017B018A01FC0150
:100F900017821682838181FFCCC1CE0101963C016C
:100FA000F6019381F70193FD859193FF81917F0174
:100FB000882309F4BAC1853239F493FD859193FFF2
:100FC00081917F01853229F4B60190E00E94B50934
:100FD000E7CF912C212C312CFFE1F315D8F08B3287
:100FE00079F038F4803279F08332A1F4232D206136
:100FF0001DC08D3261F0803369F4232D216016C04D
:10100000832D8260382EE32DE4603E2E2AC0F32D1E
:10101000F8601DC037FC2DC020ED280F2A3040F0AD
:101020008E32B9F436FC81C1232D2064322E19C0D2
:1010300036FE06C08AE0989E200D1124922E11C023
:10104000EAE02E9E200D1124222EF32DF0623F2E79
:1010500008C08C3621F4832D8068382E02C0883673
:1010600041F4F70193FD859193FF81917F018111F7
:10107000B3CF982F9F7D9554933028F40C5F1F4F6A
:101080009FE399830DC0833631F0833771F0833548
:1010900009F059C021C0F801808189830E5F1F4F7C
:1010A00088248394912C530113C02801F2E04F0E41
:1010B000511CF801A080B18036FE03C0692D70E09C
:1010C00002C06FEF7FEFC5010E94AA094C018201A7
:1010D000F32DFF773F2E16C0280122E0420E511C4F
:1010E000F801A080B18036FE03C0692D70E002C017
:1010F0006FEF7FEFC5010E949F094C01F32DF0684F
:101100003F2E820133FC1BC0822D90E08816990689
:10111000B0F4B60180E290E00E94B5092A94F4CFC1
:10112000F50137FC859137FE81915F01B60190E0B2
:101130000E94B50921102A9421E0821A9108811495
:10114000910471F7E8C0843611F0893641F5F80151
:1011500037FE07C060817181828193810C5F1F4FD0
:1011600008C060817181072E000C880B990B0E5FFF
:101170001F4FF32DFF763F2E97FF09C09095809566
:10118000709561957F4F8F4F9F4FF0683F2E2AE0FB
:1011900030E0A3010E94F109882E861845C08537EA
:1011A00031F4232D2F7EB22E2AE030E025C0932D7E
:1011B000997FB92E8F36C1F018F4883579F0B5C013
:1011C000803719F0883721F0B0C0E92FE061BE2EDA
:1011D000B4FE0DC0FB2DF460BF2E09C034FE0AC062
:1011E000292F2660B22E06C028E030E005C020E19D
:1011F00030E002C020E132E0F801B7FE07C06081B4
:101200007181828193810C5F1F4F06C06081718163
:1012100080E090E00E5F1F4FA3010E94F109882E2D
:101220008618FB2DFF773F2E36FE0DC0232D2E7F17
:10123000A22E891458F434FE0BC032FC09C0832D51
:101240008E7EA82E05C0B82CA32C03C0B82C01C0DC
:10125000B92CA4FE0FC0FE01E80DF11D8081803382
:1012600021F49A2D997EA92E09C0A2FE06C0B3943E
:10127000B39404C08A2D867809F0B394A3FC11C0FE
:10128000A0FE06C0B21488F4280C922C9B180EC045
:10129000B21460F4B60180E290E00E94B509B39404
:1012A000F7CFB21418F42B1802C0982C212CA4FEEE
:1012B00010C0B60180E390E00E94B509A2FE17C0FD
:1012C000A1FC03C088E790E002C088E590E0B60189
:1012D0000CC08A2D867859F0A1FE02C08BE201C0B5
:1012E00080E2A7FC8DE2B60190E00E94B509891466
:1012F00038F4B60180E390E00E94B5099A94F7CFE4
:101300008A94F301E80DF11D8081B60190E00E94FE
:10131000B5098110F5CF222009F442CEB60180E252
:1013200090E00E94B5092A94F6CFF6018681978154
:1013300002C08FEF9FEF2B96E2E10C946B0AFC0149
:101340000590615070400110D8F7809590958E0FF0
:101350009F1F0895FC016150704001900110D8F763
:10136000809590958E0F9F1F08950F931F93CF9395
:10137000DF93FB01238121FD03C08FEF9FEF2CC082
:1013800022FF16C0468157812481358142175307B9
:1013900044F4A081B1819D012F5F3F4F31832083B1
:1013A0008C93268137812F5F3F4F3783268314C06C
:1013B0008B01EC01FB010084F185E02D0995892B5F
:1013C000E1F6D80116968D919C9117970196179684
:1013D0009C938E931697CE01DF91CF911F910F9121
:1013E0000895FA01AA27283051F1203181F1E894BB
:1013F0006F936E7F6E5F7F4F8F4F9F4FAF4FB1E008
:101400003ED0B4E03CD0670F781F891F9A1FA11D02
:10141000680F791F8A1F911DA11D6A0F711D811D03
:10142000911DA11D20D009F468943F912AE0269FC8
:1014300011243019305D3193DEF6CF010895462F27
:101440004770405D4193B3E00FD0C9F7F6CF462F08
:101450004F70405D4A3318F0495D31FD4052419371
:1014600002D0A9F7EACFB4E0A6959795879577952E
:101470006795BA95C9F700976105710508959B01B5
:10148000AC010A2E06945795479537952795BA953E
:10149000C9F7620F731F841F951FA01D08952F9217
:1014A0003F924F925F926F927F928F929F92AF92F4
:1014B000BF92CF92DF92EF92FF920F931F93CF9341
:1014C000DF93CDB7DEB7CA1BDB0B0FB6F894DEBFD8
:1014D0000FBECDBF09942A88398848885F846E84FE
:1014E0007D848C849B84AA84B984C884DF80EE8048
:1014F000FD800C811B81AA81B981CE0FD11D0FB651
:10150000F894DEBF0FBECDBFED010895F894FFCF74
:10151000000000000000005F00000007000700144A
:101520007F147F14242A7F2A122313086462364909
:101530005522500005030000001C224100004122FA
:101540001C0014083E081408083E0808005030002B
:101550000008080808080060600000201008040265
:101560003E5149453E00427F40004261514946217B
:1015700041454B311814127F1027454545393C4AE7
:101580004949300171090503364949493606494937
:10159000291E00363600000056360000081422418D
:1015A00000141414141400412214080201510906F5
:1015B000324979413E7E1111117E7F494949363EBB
:1015C000414141227F4141221C7F494949417F09D4
:1015D0000909013E4149497A7F0808087F00417F97
:1015E00041002040413F017F081422417F4040409C
:1015F000407F020C027F7F0408107F3E4141413E44
:101600007F090909063E4151215E7F0919294626B5
:101610004949493201017F01013F4040403F1F20BD
:1016200040201F7F2018207F631408146307087070
:101630000807615149454350574D20414E414C598F
:101640005A455200465245513D256C752E25303382
:10165000754B485A00445554593D2575252500546D
:10166000494D453D256C752E253033754D53000091
:00000001FF
